:020000040800F2
:1000000000280020B90200080903000809030008BD
:1000100009030008090300080903000800000000A4
:1000200000000000000000000000000009030008BC
:100030000903000800000000090300080903000884
:100040000903000809030008090300080903000860
:100050000903000809030008A901000809030008B2
:100060000903000809030008090300080903000840
:100070000903000809030008090300080903000830
:100080000903000809030008090300080903000820
:100090000903000809030008090300080903000810
:1000A0000903000809030008090300080903000800
:1000B00009030008090300080903000809030008F0
:1000C00009030008090300080903000809030008E0
:1000D00009030008090300080903000809030008D0
:1000E00009030008090300080000000009030008D4
:1000F00009030008090300080903000809030008B0
:10010000090300080903000809030008090300089F
:10011000090300080903000809030008090300088F
:10012000090300080903000809030008090300087F
:1001300010B5054C237833B9044B13B10448AFF321
:1001400000800123237010BD00000020000000008B
:100150005403000808B5034B1BB103490348AFF330
:10016000008008BD000000000400002054030008C7
:1001700080B582B000AF00F051F800F02BF8094BC9
:100180001B68084A83F00103136000237B6002E0D0
:100190007B6801337B607B6840F6B7329342F7DDC2
:1001A000EDE700BF0C0C014080B400AF074B1B68AB
:1001B000064A83F400531360054B1B68044A43F05E
:1001C0000103136000BFBD4680BC70470C080140AE
:1001D0000C04014080B400AF0C4B00221A600C4BA1
:1001E0001B680B4A43F0010313600A4B1B68094A62
:1001F00043F001031360084B1B68074A43F04003B8
:10020000136000BFBD4680BC704700BF08000140BE
:10021000080401400004014000E100E080B400AFA8
:100220001F4B1B681E4A43F0010313601C4B1B68E5
:100230001B4A43F004031360194B1B68184A43F030
:1002400008031360174B1B68164A23F470031360EE
:10025000144B1B68134A43F400131360124B1B68C2
:10026000114A43F004031360104B1B680F4A23F03C
:100270000F0313600D4B1B680C4A43F0020313601D
:100280000B4B1B680A4A43F400531360094B1B686D
:10029000084A43F00103136000BFBD4680BC7047AD
:1002A000181002400408014000080140000C014001
:1002B0000C0801400C0C01400D488546AFF300804E
:1002C0000C480D490D4A002302E0D458C4500433B1
:1002D000C4188C42F9D30A4A0A4C002301E0136087
:1002E0000432A242FBD300F011F8FFF741FFFEE712
:1002F00000280020000000200000002074030008F7
:10030000000000201C000020FEE7000070B5002562
:100310000C4E0D4CA41BA410A54209D100F01AF8F4
:1003200000250A4E0A4CA41BA410A54205D170BD9D
:1003300056F8253098470135EEE756F825309847AE
:100340000135F2E76C0300086C0300086C03000839
:1003500070030008F8B500BFF8BC08BC9E467047A3
:0C036000F8B500BFF8BC08BC9E46704712
:04036C00550100082F
:04037000310100084F
:04000005080002B934
:00000001FF
