:0400000031EF00F0EC
:100008000BC017F00CC016F00DC015F0F2A210D0FE
:1000180082700B0E0B6E260E0C6E5D0E0D6E0D2E85
:10002800FED70C2EFCD70B2EFAD700000000F29258
:0E00380017C00BF016C00CF015C00DF0110033
:100046000F0EC16E9380F28EF28CF18CF18EF288D7
:02005600120096
:0A005800949082909492829212001C
:10006200FADFF0DF82720B0E0B6E260E0C6E5D0E47
:100072000D6E0D2EFED70C2EFCD70B2EFAD70000DC
:060082000000F0D7FFD7DB
:020000040030CA
:0D000100021F1EFF8381FF0FC00FE00F40A4
:00000001FF
