:100000001BEF00F00000000000EF00F00000000017
:0A0010000000000000000000F3D71C
:0A001C00826A946A836A956A1200F2
:100026000900F5CFE6FF0006FBE10106F9E1120043
:10003600F2DF010E156E000E166E800E1618006E9B
:10004600800E005C02E10A0E155C23E2176A186A4C
:10005600800E1818006E800E005C02E10A0E175C16
:1000660013E217C082FF040E0B6E0C0E0C6E330EDD
:100076000D6E0D2EFED70C2EFCD70B2EFAD70000D8
:100086000000174A182AE4D715C083FF154A162A16
:06009600D4D7CFD7FFD73D
:020000040030CA
:0D000100021F1EFF8381FF0FC00FE00F40A4
:00000001FF
